:020000001628C0
:0E000600831203132B088A002A0882000800C8
:1000140003208A110A128000840AAA0A0319AB0A6F
:08002400F003031D0A28080087
:10002C00773083120313A0004130A1003B30A200B3
:10003C006B30A3004D30A4006E30A5007E30A600BE
:10004C004330A7007F30A8006F30A90083168701CA
:10005C008312AC012C080A3A031949282C08203EBB
:10006C008400000887000330FB008A30FC00553008
:10007C00FD00FD0B3F28FC0B3F28FB0B3F2800002D
:0A008C000000AC0A30282E284A2894
:04400E00F42F000784
:00000001FF
