:02000000D02905
:0400060000000800EE
:10000A00103083120313FD00FD0B092800000800BD
:10001A00083083120313FC002330FD00FD0B132864
:06002A00FC0B1328080086
:1000300083160313A61B1F288312871221288312FD
:1000400087168316261B2728831207122928831256
:1000500007168316A61A2F288312881131288312B7
:1000600088158316261A3728831208113928831217
:1000700008156C183D2887153E2887118814032021
:1000800088108316A61947288312871249288312DD
:100090008716831626194F288312071251288312B8
:1000A00007168316A6185728831288115928831219
:1000B0008815831626185F28831208116128831279
:1000C00008156C1865288715662887118814032081
:0E00D00088106C1C6D280D206E28052008007D
:1000DE008128803083160313A3009428C030A30018
:1000EE0094289430A3009428D430A3009428803010
:1000FE00A3009428831603132308013A03197028CA
:10010E002308023A031975282308033A031978289D
:10011E002308043A03197B287E282403F0002308C1
:10012E00F0077008A30083126C1470088316A600E3
:10013E0018206C1083162508A60018206C140800D1
:10014E00831203136C1083162308A60018206C1458
:02015E00080097
:0E016000831203136E088A006D0882000800E7
:10016E00403083160313A6001820EF016F08073CDA
:10017E00031CD4286F08323EF00003300318013EF2
:10018E00F1007008ED007108EE00B0208A110A121D
:10019E008316A300A720EF0ABD2802308316A600FF
:1001AE00182083162008A3002108A400A5016F20A3
:0201BE00080037
:1001C000403083160313A6001820EF016F08073C88
:1001D000031CFD286F082A3EF00003300318013E7F
:1001E000F1007008ED007108EE00B0208A110A12CB
:1001F0008316A300A720EF0AE62802308316A60084
:10020000182083162008A3002108A400A5016F2050
:020210000800E4
:10021200403083160313A6001820EF016F08073C35
:10022200031C26296F08223EF00003300318013E0A
:10023200F1007008ED007108EE00B0208A110A1278
:100242008316A300A720EF0A0F2902308316A60007
:10025200182083162008A3002108A400A5016F20FE
:02026200080092
:10026400B0208A110A128000840AED0A0319EE0AEA
:08027400F003031D322908000C
:10027C00831603138810871108118811071287122F
:10028C0083128810871187120712881108110D200C
:10029C000D200D20881508158814032088100D20BA
:1002AC008814032088100D208814032088100D203A
:1002BC0008118814032088100D208814032088103E
:1002CC00881187168814032088100D2087120815B2
:1002DC0088140320881008118814032088100D201E
:1002EC0088140320881008158814032088100D200A
:1002FC00081188140320881087160716881508150E
:0C030C008814032088100D206C140800D9
:100318009E29803083160313A000B129C030A000A5
:10032800B1299430A000B129D430A000B12980307F
:10033800A000B129831603132008013A03198D2957
:100348002008023A031992292008033A031995292B
:100358002008043A031998299B292103F000200852
:10036800F0077008A0007008A60018206C10EF01B4
:100378006F0883162207840000080319CD29831209
:100388006F088316220784000008A300A720EF0A3D
:08039800BC2983126C1408005B
:1003A0003A2303308316031385008801870103175E
:1003B0008801831203138701880185013E210C30D7
:1003C0008316A600182001308316A0000130A1007A
:1003D0005D30A2008C2102308316A0000130A10004
:1003E0004C30A2008C21051C582A01308316A6002F
:1003F00018200230FB004530FC00A930FD00FD0B49
:10040000FF29FC0BFF29FB0BFF2900000000013036
:100410008316A0000130A1003B30A2008C210230E5
:10042000FB004530FC00A930FD00FD0B152AFC0B3C
:10043000152AFB0B152A0000000002308316A000CD
:100440000130A1002030A2008C210630FB001330C7
:10045000FC00AD30FD00FD0B2B2AFC0B2B2AFB0B07
:100460002B2A00000000EB0111306B020318462A12
:1004700018308316A6001820C330FC00CD30FD00D4
:10048000FD0B402AFC0B402AEB0A342A0330FB0008
:100490008A30FC005530FD00FD0B4C2AFC0B4C2A29
:1004A000FB0B4C2A0000000001308316A600182028
:1004B000851CD02A01308316A6001820013083162F
:1004C000A0000530A1003230A2008C210630FB00D4
:1004D0001330FC00AD30FD00FD0B6C2AFC0B6C2AC8
:1004E000FB0B6C2A00000000EB016B08113A0319AA
:1004F000CC2A01308316A600182002308316A000F3
:1005000083126B088316A100B7201C308316A60047
:1005100018200230FB000430FC00BA30FD00FD0B57
:100520008F2AFC0B8F2AFB0B8F2A000002308316C8
:10053000A00083126B088316A100E0200230FB00AC
:100540000430FC00BA30FD00FD0BA42AFC0BA42AE9
:10055000FB0BA42A000002308316A00083126B0854
:100560008316A10009218230FC00DD30FD00FD0B67
:10057000B72AFC0BB72A000000001C308316A60027
:1005800018204130FC00EE30FD00FD0BC52AFC0BAD
:10059000C52A0000EB0A752A18308316A600182019
:0405A000E329D12A50
:10067400203084004B3083120313F000D730ED0098
:080684000230EE0032210800F3
:1005AE00453473347034613472347A3461342034A7
:1005BE0032343134303434343534393439343734E8
:0405CE00343400348D
:1005D2002D345034413443344D3441344E342D346F
:0205E2000034E3
:1005E4004A34753461346E3420344D3461346E349D
:1005F400753465346C3420344C3461347234613471
:020604000034C0
:1006060043342034703461347234613420344534D8
:100616006D34623465346234693464346F347334EF
:0206260000349E
:10062800203420345034723461346334743469347F
:0C06380063346134203430343734003433
:1006440000340E341F341F341F341F340E3400346E
:1006540000340E341F341E341C341F340E34003462
:1006640000340E341F3415341F341F341534003451
:04400E00F42F000784
:00000001FF
