:020000001628C0
:0E0006008312031321088A00200882000800DC
:1000140003208A110A128000840AA00A0319A10A83
:08002400F003031D0A28080087
:10002C008316031387017F30810003178901FF308A
:10003C00831203138600061C4528773006058700BB
:10004C000230FB004530FC00A930FD00FD0B2C28D4
:10005C00FC0B2C28FB0B2C28000000000130870027
:10006C000230FB004530FC00A930FD00FD0B3C28A4
:10007C00FC0B3C28FB0B3C280000000046288701A9
:04008C0021284728B8
:04400E00F42F000784
:00000001FF
