:02000000D92BFA
:0400060000000800EE
:10000A00103083120313FD00FD0B092800000800BD
:10001A00083083120313FC002330FD00FD0B132864
:06002A00FC0B1328080086
:1000300083120317AE1B1E2886131F2886172E1B3C
:100040002328061324280617AE1A282886122928E2
:1000500086162E1A2D2806122E280616831603132E
:100060006F18352883120615372883120611861556
:10007000032086110317AE193F28861340288617E0
:100080002E194428061345280617AE18492886124B
:100090004A2886162E184E2806124F280616831652
:1000A00003136F1856288312061558288312061159
:1000B00086150320861183166F1C60280D20612889
:0400C000052008000F
:1000C400831603136F10831203172908AE00182038
:0600D40083166F14080002
:0E00DA00033083120313FD00FD0B7128080094
:1000E80083120317A901AB01AC011030AD00043035
:1000F8002C020318A428F0300313880003172D09D5
:10010800831603138800032003200F308312080589
:10011800F00070080317AA00700803199E282B081E
:10012800A9002A0803199C28AA0CAA13A90A952829
:100138000430AC00AD0D2D100430AB07AC0A7B28A1
:060148002908F000080088
:0E014E00831603136E088A006D0882000800F5
:10015C0074207008A5000F3003130805F000031974
:0E016C00B9286D20B12803172508F0000800FF
:10017A00CF28803083120317A500E228C030A500DB
:10018A00E2289430A500E228D430A500E228803085
:10019A00A500E228831203172508013A0319BE288D
:1001AA002508023A0319C3282508033A0319C62861
:1001BA002508043A0319C928CC282603F000250883
:1001CA00F0077008A5007008AE00182083166F109B
:1001DA0083120317A80128082707840000080319B7
:1001EA0000292808270784000008A9006220831232
:0E01FA000317A80AF028831603136F140800D9
:10020800831203134E088316EC0001308312031780
:10021800AE00182083166C08103E84000008F10018
:100228006C081B3E840071080006031D34298312E4
:10023800CE0A01300317A5000130A600DD30A70063
:10024800BD200430FB00CF30FC000130FD00FD0B69
:100258002B29FC0B2B29FB0B2B2900000000612903
:100268006C081B3E84000008F1006C08103E8400F6
:1002780071080006031961298312CE0101300317A2
:10028800A5000130A600A030A700BD2002308312CF
:100298000317A5000130A6006030A700BD20333049
:1002A800FB00BB30FC00DF30FD00FD0B5929FC0BC7
:1002B8005929FB0B5929000000000130831203174C
:0602C800AE001820080042
:1002CE00013083120317AE00182001300317A5006A
:1002DE000130A600D030A700BD2083124E08831631
:1002EE00EC0083166C080319972A03306B07F10094
:1002FE007108EB007108013A031D87290230EB00EB
:10030E006B080B3A031D8D290130EB006B080D3A7B
:10031E000130031D0030F1006B080E3A0130031D51
:10032E000030F0007108F00403199F290530EB002E
:10033E006B080F3A031DA5290330EB006B08103A2A
:10034E00031DAB290130EB0011306B02031CB129E8
:10035E000B30EB00D62983120714072A8312871459
:10036E00072A83120715072A83128715072A831275
:10037E000716072A83128716072A83120717072ADA
:10038E0083128717072A83120516072A83128516EA
:10039E00072A83120517072A83128517072A831641
:1003AE006B08013A0319B2296B08023A0319B529F1
:1003BE006B08033A0319B8296B08043A0319BB29D1
:1003CE006B08053A0319BE296B08063A0319C129B1
:1003DE006B08073A0319C4296B08083A0319C72991
:1003EE006B08093A0319CA296B080A3A0319CD2971
:1003FE006B080B3A0319D0296B080C3A0319D32951
:10040E0083166C081B3E84006B08800083124E0816
:10041E00013A031D212A0630FB001330FC00AD30DB
:10042E00FD00FD0B182AFC0B182AFB0B182A0000E6
:10043E000000872A4E08023A031D332A0530FB00BE
:10044E005030FC00E030FD00FD0B2B2AFC0B2B2A5C
:10045E00FB0B2B2A0000872A4E08033A031D452A60
:10046E000430FB008E30FC001230FD00FD0B3D2AE7
:10047E00FC0B3D2AFB0B3D2A0000872A4E08043A4E
:10048E00031D562A0330FB00CB30FC004530FD0027
:10049E00FD0B4F2AFC0B4F2AFB0B4F2A872A4E08C7
:1004AE00053A031D682A0330FB004930FC00663014
:1004BE00FD00FD0B602AFC0B602AFB0B602A00007E
:1004CE00872A4E08063A031D7A2A0230FB00C730EF
:1004DE00FC008830FD00FD0B722AFC0B722AFB0B10
:1004EE00722A0000872A0230FB000430FC00BA306A
:1004FE00FD00FD0B802AFC0B802AFB0B802A0000DE
:10050E008316EC0301308312850087014130FC0015
:10051E00EE30FD00FD0B912AFC0B912A000078298C
:02052E000800C3
:10053000013083120317AE00182001300317A50005
:100540000130A6003E30A700BD200630FB0013306E
:10055000FC00AD30FD00FD0BAB2AFC0BAB2AFB0B06
:08056000AB2A000000000800B6
:0A056800FF3083160313880008001B
:1005720083160313861106110612861206138613BA
:1005820083128611061186130613861206120D2097
:100592000D200D20861606168615032086110D20C5
:1005A2008615032086110D208615032086110D2045
:1005B20006128615032086110D208615032086114A
:1005C200861286178615032086110D2086130616BD
:1005D20086150320861106128615032086110D202A
:1005E20086150320861106168615032086110D2016
:1005F200061286150320861186170617861606161A
:0E0602008615032086110D2083166F14080044
:10061000013083120317AE00182001300317A50024
:100620000130A6002F30A700BD200230831203172F
:10063000A5000130A6002030A700BD2083124E087F
:100640008316EC006C080319CC2BAE2070089A00BE
:100650008230FC00DD30FD00FD0B2C2BFC0B2C2B25
:10066000000000001A080319252B962B831603138C
:100670006C08103E840001308000C82B83160313E1
:100680006C08103E840002308000C82B83160313D0
:100690006C08103E840003308000C82B83160313BF
:1006A0006C08103E840004308000C82B83160313AE
:1006B0006C08103E840005308000C82B831603139D
:1006C0006C08103E840006308000C82B831603138C
:1006D0006C08103E840007308000C82B831603137B
:1006E0006C08103E840008308000C82B831603136A
:1006F0006C08103E840009308000C82B8316031359
:100700006C08103E84000A308000C82B8316031347
:100710006C08103E84000B308000C82B8316031336
:100720006C08103E84000C308000C82B8312031725
:100730001A08013A0319362B1A08023A03193E2BFC
:100740001A08033A0319462B1A08043A03194E2BC8
:100750001A08053A0319562B1A08063A03195E2B94
:100760001A08073A0319662B1A08083A03196E2B60
:100770001A08093A0319762B1A080A3A03197E2B2C
:100780001A080B3A0319862B1A080C3A03198E2BF8
:0A07900083160313EC03222B08006C
:10079A00A7208A110A128000840AED0A0319EE0AB8
:0807AA00F003031DCD2B080034
:1007B200CE24831603138701831287010130831627
:1007C2008500831285018316031788018901B922E6
:1007D200B422013083120317AE0018200C30031725
:1007E200AE001820013003179C0001309100031362
:1007F2004E0803192A2C4E08013A031D122C01300F
:100802000317A5000130A6004F30A700BD2002301B
:1008120083120317A5000130A600C030A700BD2037
:100822001F2C83124E08013C03181F2C01300317A2
:10083200A5000130A600AF30A700BD208312051C21
:10084200292C01308316EB0098226721082304210A
:06085200F82BF82B2B2C03
:10099C0020308400503083120313F0003130831662
:1009AC00ED000430EE00CD23A03084004C308312D7
:1009BC00F00081308316ED000430EE00CD230800EA
:10086200203420342034203420347334653463340B
:0E087200753465346E34633469346134003497
:10088000203449346E34743472346F3464347534C3
:0E0890007A346334613420346C3461340034C3
:10089E002034203420344134743465346E3463345F
:1008AE0069346F346E342E342E342E3420340034AA
:0208BE00013403
:1008C0005434653463346C34613464346F344D347F
:1008D00061347434723469346334693461346C342F
:0208E0000034E2
:1008E20020342034463449344E34203444344534A0
:1008F2004C3420344A345534453447344F34003470
:1009020020342034203449346E3463346F347234EA
:0E09120072346534633474346F34213400342D
:1009200020345334693467347534693465346E3433
:1009300074346534203452346F346E34643461342A
:02094000003481
:10094200203450347234613463347434693463341F
:10095200613420343834203479342034393400344A
:10096200203420342034203420342E3420342034D7
:0A0972002E34203420342E340034DB
:10097C00203420342034203443344F345234523415
:0C098C004534433454344F3421340034DB
:02099800003429
:04400E00F42F000784
:00000001FF
