:0200000089284D
:1000060083120313FB01FA01F9018030F800F10CA9
:10001600F00C031C17287408F90775080318750FE8
:10002600FA070318FB0A0310F01F1F287408FA07C3
:1000360075080318750FFB07FB0CFA0CF90CF80C86
:10004600031C0A287B08F3007A08F2007908F100FD
:060056007808F00008002C
:0E005C008312031323088A0022088200080082
:0C006A008312031395011712971208006F
:100076002E208A110A128000840AA20A0319A30AF2
:08008600F003031D3B280800F4
:10008E00831603131208013EF000F1010318F10A62
:10009E0083122408F400F50103200630F2007008E4
:1000AE00F4007108F500720803196228F50CF40CBF
:1000BE00F513FF3E5B280430F1007408F000710860
:1000CE0003196D28F00D7010FF3E67283030700553
:1000DE00F3007408F0007508F100F10CF00CF11348
:1000EE00F10CF00CF113700895000F3097057308A2
:0400FE00970408005B
:10010200831603130711831212150C30970408008B
:10011200013083120313A0000330831685000317F6
:1001220088010330831203138500121492107C306D
:1001320083169200352081200518A7282008063A48
:100142000319A428A00A0518A728A4288518B128ED
:100152002008013A0319AE28A0038518B128AE2859
:10016200D928A4014720F1281930A1001930A40090
:100172004720F1283230A1003230A4004720F12874
:100182004B30A1004B30A4004720F1286430A1007D
:100192006430A4004720F1289630A1009630A400D4
:1001A2004720F128FD0BD328FC0BD3280000F128AF
:1001B2002008013A0319B2282008023A0319B52887
:1001C2002008033A0319BB282008043A0319C1285E
:1001D2002008053A0319C7282008063A0319CD2832
:0401E2009D28F2283A
:04400E00F42F000784
:00000001FF
