:02000000C8280E
:100006008312031301082D07F1007108AD00710872
:100016000A3A031D1B28AD01AC0A2C080A3A031D37
:100026001B28AC01A00A20080A3A031D1B28A001C0
:020036000800C0
:0E003800831203132F088A002E08820008008E
:10004600043083120313FC003D30FD00FD0B29280C
:10005600FC0B292800000000C3309F009F1C342899
:1000660031281E08B000AF303002031C3D28013095
:10007600B1003E28B101C5309F000430FC003D3080
:10008600FD00FD0B4428FC0B442800000000C7308F
:100096009F009F1C4F284C281E08B000AF3030022E
:0E00A600031C58280130B2005928B20108008E
:1000B4000030831203138805330803199928200894
:1000C400213E840000088700023088000530FC00CF
:1000D4005230FD00FD0B6C28FC0B6C280000000066
:1000E40088012C08213E8400000887000430880021
:1000F4000530FC005230FD00FD0B7E28FC0B7E28F1
:100104000000000088012D08213E840000088700BB
:10011400083088000530FC005230FD00FD0B9028AB
:10012400FC0B9028000000008801B3035E2808003F
:100134001C208A110A128000840AAE0A0319AF0A2D
:08014400F003031D9A280800D6
:10014C0023203108013A031DB1283208003A031D5F
:10015C00B1288515C7283108003A031DC12832087B
:10016C00013A031DC1281B308316850083128511AB
:10017C000830AB00C7281330831685008312851115
:04018C000320080044
:1001900083120313A0017730A1004130A2003B304D
:1001A000A3006B30A4004D30A5006E30A6007E3059
:1001B000A7004330A8007F30A9006F30AA00AB0130
:1001C000AC01AD011330831685000330031788009E
:1001D00086010030031387058801F8308100C130A3
:1001E00083129F0083169F018312870181012B08D0
:1001F000003A031DFD280511A62001080319012955
:1002000003200A30B3005A202B08003A03190929A9
:08021000AB038101F7280B2963
:04400E00F42F000784
:00000001FF
