:1000000000300020010100004D01000051010000FE
:1000100000000000000000000000000000000000E0
:10002000000000000000000000000000550100007A
:100030000000000000000000590100005D01000008
:10004000650100006D010000750100007D010000E8
:10005000850100008D010000950100009D01000058
:10006000A5010000AD010000B5010000BD010000C8
:10007000C5010000CD010000D5010000DD01000038
:10008000E5010000ED010000F5010000FD010000A8
:10009000050200000D020000590A00001D020000C8
:1000A000250200002D020000350200003D02000084
:1000B000450200004D020000550200005D020000F4
:1000C0005831000080F0FF1F0800000088F0FF1F7B
:1000D0005401000010B5002304E004680C600433F0
:1000E000043004319342F8D310BDC046002303E02E
:1000F00000220260043304308B42F9D37047C046BB
:1001000010B572B601F016FE0D4B07E0186859687D
:100110001C000C349A68FFF7DDFF2300094A934264
:10012000F4D306E018681C0008345968FFF7DEFFB6
:100130002300054A9342F5D362B601F007FEFEE7BD
:10014000C0000000CC000000D4000000FEE7C04664
:10015000FEE7C046FEE7C046FEE7C046FEE7C046F3
:10016000FEE7C04610B5FFF7FBFF10BD10B5FFF767
:10017000F7FF10BD10B5FFF7F3FF10BD10B5FFF787
:10018000EFFF10BD10B5FFF7EBFF10BD10B5FFF787
:10019000E7FF10BD10B5FFF7E3FF10BD10B5FFF787
:1001A000DFFF10BD10B5FFF7DBFF10BD10B5FFF787
:1001B000D7FF10BD10B5FFF7D3FF10BD10B5FFF787
:1001C000CFFF10BD10B501F09BFB10BD10B501F0C5
:1001D0008DFD10BD10B501F09BFD10BD10B5FFF7F2
:1001E000BFFF10BD10B5FFF7BBFF10BD10B5FFF787
:1001F000B7FF10BD10B5FFF7B3FF10BD10B5FFF787
:10020000AFFF10BD10B5FFF7ABFF10BD10B5FFF786
:10021000A7FF10BD10B5FFF7A3FF10BD10B5FFF786
:100220009FFF10BD10B5FFF79BFF10BD10B5FFF786
:1002300097FF10BD10B5FFF793FF10BD10B5FFF786
:100240008FFF10BD10B5FFF78BFF10BD10B5FFF786
:1002500087FF10BD10B5FFF783FF10BD10B5FFF786
:100260007FFF10BDFFFFFFFFFFFFFFFFFFFFFFFF4F
:10027000FFFFFFFFFFFFFFFFFFFFFFFFFFFFFFFF8E
:10028000FFFFFFFFFFFFFFFFFFFFFFFFFFFFFFFF7E
:10029000FFFFFFFFFFFFFFFFFFFFFFFFFFFFFFFF6E
:1002A000FFFFFFFFFFFFFFFFFFFFFFFFFFFFFFFF5E
:1002B000FFFFFFFFFFFFFFFFFFFFFFFFFFFFFFFF4E
:1002C000FFFFFFFFFFFFFFFFFFFFFFFFFFFFFFFF3E
:1002D000FFFFFFFFFFFFFFFFFFFFFFFFFFFFFFFF2E
:1002E000FFFFFFFFFFFFFFFFFFFFFFFFFFFFFFFF1E
:1002F000FFFFFFFFFFFFFFFFFFFFFFFFFFFFFFFF0E
:10030000FFFFFFFFFFFFFFFFFFFFFFFFFFFFFFFFFD
:10031000FFFFFFFFFFFFFFFFFFFFFFFFFFFFFFFFED
:10032000FFFFFFFFFFFFFFFFFFFFFFFFFFFFFFFFDD
:10033000FFFFFFFFFFFFFFFFFFFFFFFFFFFFFFFFCD
:10034000FFFFFFFFFFFFFFFFFFFFFFFFFFFFFFFFBD
:10035000FFFFFFFFFFFFFFFFFFFFFFFFFFFFFFFFAD
:10036000FFFFFFFFFFFFFFFFFFFFFFFFFFFFFFFF9D
:10037000FFFFFFFFFFFFFFFFFFFFFFFFFFFFFFFF8D
:10038000FFFFFFFFFFFFFFFFFFFFFFFFFFFFFFFF7D
:10039000FFFFFFFFFFFFFFFFFFFFFFFFFFFFFFFF6D
:1003A000FFFFFFFFFFFFFFFFFFFFFFFFFFFFFFFF5D
:1003B000FFFFFFFFFFFFFFFFFFFFFFFFFFFFFFFF4D
:1003C000FFFFFFFFFFFFFFFFFFFFFFFFFFFFFFFF3D
:1003D000FFFFFFFFFFFFFFFFFFFFFFFFFFFFFFFF2D
:1003E000FFFFFFFFFFFFFFFFFFFFFFFFFFFFFFFF1D
:1003F000FFFFFFFFFFFFFFFFFFFFFFFFFFFFFFFF0D
:10040000FFFFFFFFFFFFFFFFFFFFFFFFFEFFFFFFFD
:1004100080B582B000AF78600A00FB1C1A70FB1C2C
:100420001B78002B08D07B68DB78DBB208221343F3
:10043000DAB27B68DA7007E07B68DB78DBB208222F
:100440009343DAB27B68DA70C046BD4602B080BD25
:1004500080B582B000AF78600A00FB1C1A70FB1CEC
:100460001B78002B08D07B68DB78DBB204221343B7
:10047000DAB27B68DA7007E07B68DB78DBB20422F3
:100480009343DAB27B68DA70C046BD4602B080BDE5
:1004900080B582B000AF78600A00FB1C1A70FB1CAC
:1004A0001B78002B08D07B68DB78DBB20822134373
:1004B000DAB27B68DA7007E07B68DB78DBB20822AF
:1004C0009343DAB27B68DA70C046BD4602B080BDA5
:1004D00080B582B000AF78600A00FB1C1A70FB1C6C
:1004E0001B78002B08D07B68DB78DBB20422134337
:1004F000DAB27B68DA7007E07B68DB78DBB2042273
:100500009343DAB27B68DA70C046BD4602B080BD64
:1005100080B588B000AFF860B9603B60FB1D1A7011
:10052000334B1B78002B01D001235CE0304BFA1DCC
:1005300012781A70FB1D1B78032B2AD0062B01D0D2
:10054000012B4DD1FA682A4B5A601823FB1818006A
:1005500001F02CFB1823FB18BA681A60244B5B6867
:100560003A6818217918180001F022FA204B5B68CC
:1005700001211800FFF74CFF1D4B5B68012118009B
:10058000FFF766FF1A4B1B4A9A60194B1A4ADA604A
:1005900028E0FA68164B5A601023FB18180001F087
:1005A000A7F81023FB18BA681A60114B5B683A6809
:1005B00010217918180000F063FF0D4B5B680121D2
:1005C0001800FFF765FF0A4B5B6801211800FFF771
:1005D0007FFF074B094A9A60054B094ADA6001E040
:1005E000042300E000231800BD4608B080BDC046CB
:1005F00088F0FF1F191C0000551C0000F5170000B3
:100600004118000080B584B000AF78607B681B0C97
:10061000094A94466344FB60FB68FA6811687A688B
:100620001204120C0120904002000A431A60C046D6
:10063000BD4604B080BDC0460070044080B582B0A5
:1006400000AF786039607B683A685A60C046BD4642
:1006500002B080BD80B582B000AF786039607B6841
:100660003A689A60C046BD4602B080BD80B582B08F
:1006700000AF786039607B681A693B68DA40130024
:10068000012213401800BD4602B080BD80B584B081
:1006900000AFF860B960FB1D1A70FB68BA68920081
:1006A000D358094A1A40FB1D1B781902E023DB00CE
:1006B0000B401A431100FB68BA689200D150C04643
:1006C000BD4604B080BDC046FFF8FFFF80B584B0D2
:1006D00000AFF860B9603B60FB1D1A70FB68BA6838
:1006E0001A60FB68FA1D12781A71FB683A689A6002
:1006F000FB68BA69DA60FB68042218218C46BC44A6
:10070000624412881A82FB683A6A5A61C046BD4642
:1007100004B080BD80B582B000AF78607B681B6894
:100720001800FFF76FFF7B6898687B685B691900AA
:100730007B681B791A00FFF7A9FF7B68D8687B6884
:100740005B6919007B6810331A0000F027FEC04671
:10075000BD4602B080BDC04680B582B000AF7860B3
:100760007B68D8687B685B6901229A401300190096
:10077000FFF770FFC046BD4602B080BD80B582B0B5
:1007800000AF78607B68D8687B685B6901229A401B
:1007900013001900FFF752FFC046BD4602B080BDEE
:1007A00080B582B000AF78607B68DA687B685B698F
:1007B00019001000FFF75AFF03001800BD4602B0F1
:1007C00080BDC04680B582B000AF0200FB1D1A702C
:1007D000064BFA1D127811001F220A400121914098
:1007E0000A001A60C046BD4602B080BD00E100E0CC
:1007F00090B587B004AF00F003F9514C514952480D
:1008000012230293514A04236B4412881A80504BDE
:10081000009323000122FFF759FF4B4B1800FFF70D
:1008200079FF474C47494B4813230293474A042317
:100830006B4412881A80464B009323000122FFF775
:1008400045FF444B1800FFF765FF434C43494448BC
:10085000012302933D4A04236B4412881A80414BC2
:10086000009323000122FFF731FF3D4B1800FFF7F3
:1008700051FF334C33493C48002302933B4A042345
:100880006B4412881A80324B009323000122FFF739
:100890001DFF354B1800FFF73DFF00F05BF900F03E
:1008A00023F900237B60324B1B68642B2BD9304B20
:1008B0001B68304A934226D87B68180000F062F823
:1008C0007B6801337B607B68022B1CDD00237B602F
:1008D00019E0294B1A68FA235900100001F04DFE67
:1008E0000B1E10D17B68180000F04CF8224B1B68DF
:1008F0005A1C214B1A607B6801337B607B68022B9A
:1009000001DD00237B601C4B1A68FA239B009A428E
:1009100004D9194B1B68194A9342DAD9164B1B6844
:10092000174A9342BFD9084B1800FFF727FF094B1E
:100930001800FFF723FF0A4B1800FFF71FFFB2E76D
:1009400000A004400A003810A0F0FF1F6C26000031
:1009500040F00F40B8F0FF1F00C004400C003810FA
:10096000D0F0FF1FC0F00F40E8F0FF1F702600001E
:100970009CF0FF1F1F03000098F0FF1F0F270000CF
:100980001027000080B582B000AF78607B68012B33
:1009900011D0022B1CD0002B00D026E0154B1800E4
:1009A000FFF7DAFE144B1800FFF7E8FE134B1800B0
:1009B000FFF7E4FE19E0104B1800FFF7CDFE0D4BDA
:1009C0001800FFF7DBFE0D4B1800FFF7D7FE0CE019
:1009D0000A4B1800FFF7C0FE074B1800FFF7CEFECA
:1009E000044B1800FFF7CAFEC046C046BD4602B021
:1009F00080BDC046A0F0FF1FB8F0FF1FD0F0FF1F62
:100A000080B500AF1049104A104BD3588022120411
:100A100013430E4A8B500E4B00221A600C4A80235F
:100A20005B000C49D1500A49094A84235B00D35822
:100A300003221A4384235B00CA501620FFF7C2FE2C
:100A4000C046BD4680BDC046007004403C1000005A
:100A500000700340C05D000080B500AF104B18006F
:100A6000FFF79EFE0300012B05D10E4B1B685A1C9D
:100A70000C4B1A600CE00A4B1800FFF791FE031EA6
:100A800006D1084B1A68084B1A60064B00221A6000
:100A9000064A86235B000121D150C046BD4680BD79
:100AA000E8F0FF1F98F0FF1F9CF0FF1F007003404D
:100AB00080B582B000AF78600848084A084BD35828
:100AC000084A1A407B689906C0231B050B40134354
:100AD000034A8350C046BD4602B080BD007004404A
:100AE00004100000FFFFFFF380B582B000AF0120CB
:100AF000FFF7DEFF00F0B0F903007B607A68E123C6
:100B00005902044813000322FFF702FDC046BD4608
:100B100002B080BD00A0064080B500AF034A044B80
:100B20000449D150C046BD4680BDC0460070044057
:100B3000441000000000031080B582B000AF786060
:100B4000034B7A681A60C046BD4602B080BDC046FD
:100B500000F1FF1F80B500AF00F022F8C046BD468F
:100B600080BDC04680B582B000AF0200FB1D1A7088
:100B70000A490A4B1B78DBB238229343DAB2FB1DD9
:100B80001B78DB00DBB238200340DBB21343DBB25F
:100B90000B70C046BD4602B080BDC0460040064056
:100BA00080B500AFFFF7B8FF104B180000F000FB56
:100BB0000F4B1800FFF7C0FF00231800FFF7D2FF0C
:100BC0000C4B1A000021002000F096FB02230021AC
:100BD0000022180000F00AFA074B180000F064F930
:100BE000064B074A1A60C046BD4680BD88260000F5
:100BF00000127A007B2600008026000084F0FF1F90
:100C0000006CDC0280B582B000AF7860074B074A09
:100C10001268074911407A689004C022120302400A
:100C20000A431A60C046BD4602B080BD0070044051
:100C3000FFFFF3FF80B582B000AF78600848084A34
:100C4000084BD358084A1A407B68190480235B027A
:100C50000B401343034A8350C046BD4602B080BDDB
:100C60000070044004100000FFFFFEFF80B584B058
:100C700000AF786039600F23FB187A6812781A7019
:100C80000F23FB180F22BA1812785F210A401A703E
:100C90003B6819780F23FB180F22BA1812780A4301
:100CA0001A707B680F22BA1812781A70C046BD46B7
:100CB00004B080BD80B584B000AF78600A00FB1C32
:100CC0001A700F23FB187A6812781A700F23FB181A
:100CD0000F22BA1812780F218A431A700F23FB18BB
:100CE0000F22B918FA1C097812780A431A707B6827
:100CF0000F22BA1812781A70C046BD4604B080BDE3
:100D000080B500AF064B1B68002B03D1054B1800C4
:100D100001F022F8024B1B681800BD4680BDC0469A
:100D200000F1FF1F9026000080B582B000AFFFF7F2
:100D3000E7FF03007B607B68002B01D17B683EE00E
:100D4000214B1B78DBB21A0038231340DA08FB1C56
:100D50001A70FB1C1B787A68DA4013007B601A4B10
:100D60005B78DBB21A00302313401A09BB1C1A70DF
:100D7000BB1C1B78002B21D0FB1C1B78062B0AD038
:100D800002DC002B17DB02E0072B0CD013E07B68A2
:100D90005B097B6012E07B681421180001F0EDFB19
:100DA00003007B600AE07B680C21180001F0E5FB82
:100DB00003007B6002E000237B60C0467B68180074
:100DC000BD4602B080BDC0460040064080B500AFC1
:100DD000084B9B79DBB21A00102313401B0903D187
:100DE000FFF7A2FF030001E0034B1B681800BD469C
:100DF00080BDC0460040064080F0FF1F80B500AFB8
:100E0000FFF77EFF03001800BD4680BD80B584B0AB
:100E100000AF78607B680E4A934204D80F23FB181A
:100E200000221A700CE07B680A4A934204D80F2310
:100E3000FB1801221A7003E00F23FB1802221A701C
:100E40000F23FB181B781800BD4604B080BDC046B8
:100E50009798000000127A0080B582B000AF104A67
:100E6000104BD25880235B0213401B0C02D0012B85
:100E700005D00CE000F034F803007B600AE000F0DD
:100E800071F803007B607B685B087B6002E00023F5
:100E90007B60C0467B681800BD4602B080BDC0467E
:100EA000007004400410000080B582B000AF78608C
:100EB00009497B685B68094A8B507B681B7818007E
:100EC000FFF7B8FE7B685B781800FFF79BFEC04613
:100ED000BD4602B080BDC046007004404410000012
:100EE00080B582B000AF1D4B5B78DBB21A000223E5
:100EF000134006D1194B9B79DBB21A002023134013
:100F000001D0002326E0FFF761FF03007B607B68D0
:100F1000002B01D17B681DE0104BDB78DBB21A009F
:100F2000602313405A09FB1C1A700C4BDB78DBB2B0
:100F30001A0080231340DA09BB1C1A70FB1C1978B5
:100F4000BB1C1A78064B49008A185200D35A1A0063
:100F50007B6853431800BD4602B080BD0040064088
:100F6000B027000080B582B000AF184B9B79DBB290
:100F70001A004023134001D1002323E0FFF73EFF76
:100F800003007B607B68002B03D1114B180000F03D
:100F9000E3FE0E4B1B79DBB21A001F231340013313
:100FA0001900786801F0E9FA03007B60074B5B7970
:100FB000DBB21A001F23134018331A007B68534317
:100FC0007B607B681800BD4602B080BD00400640D3
:100FD0001427000080B582B000AF0200FB1D1A701C
:100FE00000231800BD4602B080BDC04690B585B054
:100FF00000AF040008001100FB1D221C1A70BB1D6D
:10100000021C1A707B1D0A1C1A70424B9B79DBB2C2
:101010001A000C2313409B08FB603E4B9B79DAB20D
:101020000B23FB1801210A401A703A4B1B7ADBB2E2
:101030001A000E2313405A080A23FB181A707A1D4F
:101040000A23FB1812781B789A422FD00B23FB1827
:101050001B78012B19D1FB68012B06D02D4B1B7877
:10106000DBB21A00022313400FD02A4A294B5B78C7
:10107000DBB201218B43DBB25370C046254B9B7919
:10108000DBB21A0001231340F8D12249214B1B7A0D
:10109000DBB22F229343DAB27B1D1B78DB18DBB265
:1010A0000E200340DBB21343DBB20B721949194B1C
:1010B0005B78DBB201229343DAB2BB1D1B780120BF
:1010C0000340DBB21343DBB24B701249114B1B7868
:1010D000DBB203229343DAB2FB1D1B781343DBB26E
:1010E0000B70FB68012B04D0FB1D1B780222134000
:1010F0000AD0C046074B9B79DBB21A0001231A4085
:10110000BB1D1B789A42F5D100231800BD4605B0DF
:1011100090BDC0460040064080B584B000AF786006
:101120007B68002B03D1204B180000F015FE0F2325
:10113000FB1800221A707B685B781F221340D9B21B
:101140000F23FB180F22BA1812780A431A70174A95
:101150000F23FB181B7813711449144B5B79DBB216
:101160001F229343DAB27B689B781F200340DBB2D7
:101170001343DBB24B710D490C4B1B79DAB27B6820
:101180001B781343DBB240221343DBB20B71C04622
:10119000064B9B79DBB21A0040231340F8D0C046BF
:1011A000BD4604B080BDC0463C270000004006405C
:1011B00090B585B000AF78607B681B680F22BC18C3
:1011C0001800FFF723FE030023707B681B791C4A7D
:1011D00019001000FFF76EFD7B680633184A1900EE
:1011E0001000FFF743FD1749164B5B78DBB23C223A
:1011F0009343DAB20F23FB181B781B01DBB23020BC
:101200000340DBB21343DAB27B685B791343DBB292
:101210004B707B685B79002B0DD0094B1B78DBB2E0
:101220005BB2002B07DAC046064B9B79DBB21A0093
:1012300002231340F8D0C046BD4605B090BDC0465D
:10124000005006400040064080B582B000AF02006A
:101250003960FB1D1A703B68002B03D1244B18002A
:1012600000F07AFD234A234B5B78DBB202218B43EB
:10127000DBB253701F491F4B1B78DBB23B2213407C
:10128000DBB2802252421343DBB20B70C046194BD3
:101290009B79DBB21A001C231340082BF7D1154AA7
:1012A000144B5B79DBB240218B43DBB25371C046F8
:1012B000104B9B79DBB21A0020231340F8D13B6816
:1012C0001800FFF729FF0B4A0A4B5B79DBB240217C
:1012D0000B43DBB25371C046064B9B79DBB21A005D
:1012E00020231340F8D000231800BD4602B080BD73
:1012F000602700000040064080B582B000AF3A6031
:10130000FB1D021C1A70BB1D0A1C1A703B68002BC7
:1013100003D1134B180000F01FFDFB1D1B781800B4
:10132000FFF758FE3A68BB1D1B7811001800FFF745
:101330008BFF0C4A0B4B1B78DBB23F210B40DBB21F
:101340001370C046074B9B79DBB21A000C23134085
:101350009B08032BF6D100231800BD4602B080BDC8
:10136000882700000040064080B584B000AFF860D8
:10137000B960FB1D1A70FB1D1B78002B05D10122E3
:10138000BB689A40FB689A6004E00122BB689A40FF
:10139000FB685A60C046BD4604B080BD80B584B0CD
:1013A00000AFF860B9607A607B68002B03D1134B03
:1013B000180000F0D1FC7B681B78002B0AD1FB6879
:1013C0005B690121BA6891400A00D2431A40FB6868
:1013D0005A610FE07B685A78B968FB681800FFF71C
:1013E000C3FFFB685A690121BB6899400B001A438F
:1013F000FB685A61C046BD4604B080BD00280000AD
:1014000080B584B000AF78607B681B0C094A9446B5
:101410006344FB60FB68FA6811687A681204120C76
:101420000120904002000A431A60C046BD4604B045
:1014300080BDC0460070044080B584B000AF7860C5
:101440000023FB6006E00C4A7B689A4206D0FB68EA
:101450000133FB60FB68002BF5D000E0C046FB6861
:10146000002B03D0054B180000F076FCFB68180039
:10147000BD4604B080BDC04600A006402428000040
:1014800090B58DB000AFF860B9607A60BB68002B92
:1014900003D1934B180000F05FFCBB681B68002B66
:1014A00003D1904B180000F057FC2C23FB180022AE
:1014B0001A8000237B62BB681B68BB6104233B620C
:1014C0005FE0BB681B683A6A53431900786801F013
:1014D00054F803001A002A23FB181A802A23FB1849
:1014E0001B88002B03D12A23FB1801221A802A23F0
:1014F000FB181B883A6A53431900786801F03DF8DD
:1015000003007B61BB681B687A69D31AFB61BB6807
:101510001C682A23FB181B8801331A003B6A5343BB
:101520001900786801F029F80300E21AFB699A4271
:1015300016D2BB681C682A23FB181B8801331A00CB
:101540003B6A53431900786801F017F80300E31A67
:10155000FB612A23FB181A882A23FB1801321A8000
:10156000FA69BB699A4209D8FB69BB613B6A7B6235
:101570002C23FB182A22BA1812881A803B6A0133DE
:101580003B623B6A202B9CD9BB681B686421180016
:1015900000F0F3FF03001A0013005B009A18BB6908
:1015A0009A4201D2504B97E0FB681800FFF744FFC6
:1015B0004E4B1800FFF724FFFB68DB78DBB20C22F0
:1015C0009343DAB2FB68DA707B6A032B0AD97B6A31
:1015D000072B07D8FB68DB7ADBB202221343DAB2AF
:1015E000FB68DA72FB689B7ADBB21F229343DAB2A4
:1015F0007B6ADBB2013BDBB21343DAB2FB689A725F
:10160000FB689B7ADBB21F229343DAB22C23FB18D0
:101610001B881B0A9BB2DBB21343DAB2FB681A7059
:101620002C23FB181B88DAB2FB685A70FB689B7886
:10163000DAB22F23FB1813218A431A70BB681B7977
:10164000002B0BD0BB681A792F23FB181B78134390
:10165000DAB22F23FB1810210A431A70FB682F22DD
:10166000BA1812789A70FB681B78DBB22022934379
:10167000DAB2FB681A70FB681B78DAB2BB685B7978
:101680005B01DBB220210B40DBB21343DAB2FB6813
:101690001A702F23FB18FA68D2781A70BB689B79EE
:1016A000002B07D02F23FB182F22BA1812780821FD
:1016B0000A431A70BB68DB79002B07D02F23FB1875
:1016C0002F22BA18127804210A431A70FB682F22BD
:1016D000BA181278DA7000231800BD460DB090BD1C
:1016E000F82800001C290000B50400000A0034108E
:1016F00080B582B000AF78607B68002B03D10C4BC3
:10170000180000F029FB7B68E12252021A607B6816
:1017100000221A717B6800225A717B6800229A713C
:101720007B680022DA71C046BD4602B080BDC0466B
:101730005029000080B584B000AF78607B681B79C9
:10174000DBB21A007B685B79DBB21B021343FB60E0
:10175000FB681800BD4604B080BDC04680B584B0AB
:1017600000AF786039600B23FB1800221A700B233E
:10177000FB181B78DBB20133DAB20B23FB181A70AB
:101780003A6880231B02134006D07B6880225A717E
:101790003B68154A13403B603A688023DB011340E5
:1017A00006D07B6840225A713B68104A13403B6068
:1017B0003B681F2213400AD03B68DBB21F22134054
:1017C000DAB27B681A713B681F2293433B603B6827
:1017D000002B02D0064BFB6001E00023FB60FB689E
:1017E0001800BD4604B080BDFF7FFFFFFFBFFFFFB5
:1017F000B404000080B584B000AFF860B9607A60CE
:10180000BB68002B10D10D4B180000F0A5FAC046A4
:10181000FB681B79DBB25BB2002BF9DABB685A1CA0
:10182000BA601A78FB68DA717B685A1E7A60002BFE
:10183000EDD1C046BD4604B080BDC046A029000021
:1018400080B586B000AFF860B9607A60BB68002BE5
:1018500044D1274B180000F07FFAFB681800FFF70F
:1018600069FF03007B617B690822134007D0FB6896
:1018700008211800FFF772FF9723DB0034E07B6933
:101880000422134006D0FB6804211800FFF766FF0E
:10189000184B29E07B690222134006D0FB68022125
:1018A0001800FFF75BFF144B1EE07B690122134019
:1018B00006D0FB6801211800FFF750FF0F4B13E023
:1018C000FB681B79DBB21A0020231340C5D0BB682C
:1018D0005A1CBA60FA68D279D2B21A707B685A1E62
:1018E0007A60002BECD100231800BD4606B080BD05
:1018F000C4290000B9040000BA040000BB040000C1
:1019000080B500AF044B1A68044B1B6804481900EB
:101910009047C046BD4680BD08F1FF1F04F1FF1F80
:1019200000A0064080B584B000AF78607B681B0CD7
:10193000094A94466344FB60FB68FA6811687A6858
:101940001204120C0120904002000A431A60C046A3
:10195000BD4604B080BDC0460070044080B584B070
:1019600000AF78600323BB600023FB6009E00E4BEF
:10197000FA689200D2587B689A4207D0FB6801331C
:10198000FB60FA68BB689A42F1D300E0C046FA688F
:10199000BB689A4203D3054B180000F0DDF9FB68E1
:1019A0001800BD4604B080BDB02C0000C82C00005B
:1019B00090B587B000AFF860B9607A60BB68002B63
:1019C00003D1764B180000F0C7F9BB681B68002BE9
:1019D00003D1734B180000F0BFF91623FB18002247
:1019E0001A801523FB1800221A7000233B61BB6884
:1019F0001B681B011900786800F0BFFD03001A0086
:101A00001623FB181A801623FB181B88002B03D102
:101A10001623FB1801221A801623FB181B881B01B2
:101A20001900786800F0A9FD03001A00BB681B6864
:101A3000D31A3B61BB681C681623FB181B88013353
:101A40001B011900786800F098FD0300E21A3B6959
:101A50009A4214D2BB681C681623FB181B880133FA
:101A60001B011900786800F088FD0300E31A3B6150
:101A70001623FB181A881623FB1801321A80BB683C
:101A80001B686421180000F078FD03001A001300A1
:101A90005B009A183B699A4201D2424B79E0FB689D
:101AA0001800FFF75BFF02003F4B9200D35818006D
:101AB000FFF738FFFB68DB78DBB20C229343DAB226
:101AC000FB68DA70FB681B78DBB21F229343DAB243
:101AD0001623FB181B881B0A9BB2DBB21343DAB236
:101AE000FB681A701623FB181B88DAB2FB685A7061
:101AF000FB689B78DAB21523FB1813218A431A700E
:101B0000BB681B79002B0BD0BB681A791523FB1817
:101B10001B781343DAB21523FB1810210A431A70FD
:101B2000FB681522BA1812789A70FB681B78DBB232
:101B300020229343DAB2BB685B795B01DBB22021E0
:101B40000B40DBB21343DAB2FB681A701523FB18A3
:101B5000FA68D2781A70BB689B79002B07D01523DE
:101B6000FB181522BA18127808210A431A70BB68AC
:101B7000DB79002B07D01523FB181522BA18127831
:101B800004210A431A70FB681522BA181278DA7019
:101B900000231800BD4607B090BDC046482D000088
:101BA0006C2D0000F5030000BC2C000080B582B055
:101BB00000AF78607B68002B03D10C4B180000F05D
:101BC000CBF87B68E12252021A607B6800221A710E
:101BD0007B6800225A717B6800229A717B68002220
:101BE000DA71C046BD4602B080BDC046A02D0000DF
:101BF00080B584B000AF78607B681B79DBB21A00D7
:101C00007B685B79DBB21B021343FB60FB68180047
:101C1000BD4604B080BDC04680B584B000AFF8605A
:101C2000B9607A600CE0C046FB681B79DBB25BB23E
:101C3000002BF9DABB685A1CBA601A78FB68DA71B3
:101C40007B685A1E7A60002BEDD1C046BD4604B0B9
:101C500080BDC04680B586B000AFF860B9607A60DC
:101C6000BB68002B30D11D4B180000F075F8FB68E5
:101C70001800FFF7BDFF03007B617B69082213405A
:101C800001D0174B26E07B690422134001D0154B8D
:101C900020E07B690222134001D0134B1AE07B69DC
:101CA0000122134002D0FD239B0013E0FB681B7947
:101CB000DBB21A0020231340D9D0BB685A1CBA608B
:101CC000FA68D279D2B21A707B685A1E7A60002BF9
:101CD000ECD100231800BD4606B080BD142E0000D4
:101CE000F1030000F2030000F303000080B500AF31
:101CF000044B1A68044B5B68044819009047C046BF
:101D0000BD4680BD18F1FF1F0CF1FF1F00B006405B
:101D100080B500AF044B1A68044B9B680448190057
:101D20009047C046BD4680BD18F1FF1F0CF1FF1F54
:101D300000C0064080B500AF034A88235B01002144
:101D4000D150C046BD4680BD0070044010B500F0C3
:101D5000A1FAFEF74DFD10BD70B505000E4C0F4801
:101D6000210000F0E3F92100280000F0DFF90C4A1F
:101D7000111DCB6F013BCB67002B05DB936F591C0B
:101D800091670A221A7003E021000A2000F034F85B
:101D900000F008F870BDC04694F1FF1F2331000029
:101DA0001CF1FF1F18200149ABBE7047260002003E
:101DB00010B500F01CFC10BD202310B50400C26853
:101DC0009A43E2608369826A93420CD000F0BAF8C9
:101DD000E268074B134010221343E360A36AA36138
:101DE0002369E3622360E268024B1340E36010BDA5
:101DF000EFCFFFFFBFBFFFFFF8B5CA684E4B05002E
:101E000013400C00CB60930602D50800FFF7D4FF07
:101E1000A168E3684A1C0EDA9A050CD402225242E9
:101E2000521AA260902252021343E36023685A1CA4
:101E300022601D707DE0414A1E001A40022A05D032
:101E40000022A26080321343E36053E03C490B4020
:101E5000802109028B420AD10021200000F07EF986
:101E6000E3689B0602D52000FFF7A6FFE6689023F3
:101E7000F0225B0233431201E36016421FD1606916
:101E800000F0D6FB00280CD073050AD523002433BC
:101E9000236123600123E36192235B023343E36008
:101EA0000DE080277F00380000F030F99423E268CD
:101EB0005B0233431A4320612060E761E2609022B5
:101EC000120121682669134217D0E36A8B4200D9B8
:101ED0001900891B08D1731CE3622360E3695A1E51
:101EE000A2602363357024E02200300000F05AF82D
:101EF0000028F0D0012040421CE04A1CE8B22260D9
:101F00000870E26A21688A4200D91100E269891BDF
:101F100022635B0503D40A2801D0914209DB002328
:101F2000E6622660A3602200300000F03BF8002843
:101F3000E0D1E8B2F8BDC046FFFFF7FF8A1000000D
:101F400010A0000070B5040005690168C26A134B57
:101F5000C0680340E36082230340022B02D00120CB
:101F6000404219E080235B02184015D0914200D214
:101F700011008D4208D10020E268094BE562134050
:101F80002560A060E36007E0491B2200280000F004
:101F900009F80028EFD0E2E770BDC046FFFFF7FF69
:101FA000FFFFFEFFF7B5D66801900D0014005769DA
:101FB000F30205D5102338001E4300F033FBA06167
:101FC000114B1E4209D0A169380000F03DFB80236F
:101FD000002811DB0D4B1E40E6602A0001993800F5
:101FE00000F03EFB43005B08ED1AA3695D19002376
:101FF000A561984205D08033E2681343E360012372
:102000005B421800FEBDC04610000200EFFFFDFF5E
:10201000F7B5314EC51C3468AD080196002813D0C1
:1020200080222900EB1C002752050A319C4604E05F
:102030002368934213D02700A468002CF8D10C30F9
:1020400000F08CF9431C0FD1002043E03E6896421B
:1020500017D17E689B1903336360BB68A360A768D0
:102060006368002FF2D10CE080239B05036045607C
:102070008460002F02D1019B186000E0B8600C3032
:1020800028E09D4205DC634503DC80239B0523603B
:102090001EE08B4210D980222000802192056560CD
:1020A00022600C30AA005D1B82184905033DA26026
:1020B0001160556097600DE0002FBCD19B00C01AE5
:1020C00000F04CF9431CBFD080239B052360656062
:1020D0002000D4E7FEBDC046D0F1FF1F10B5002898
:1020E00012D080235B0519000C3803608268002A37
:1020F0000AD013688B4207D1546843681B19033315
:10210000436093688360F1E710BDFFFF10B5FFF7F0
:102110007FFF041E05D11722034900F0A1FAFFF743
:1021200041FE200010BDC0463C31000070B50D00DE
:1021300004002078002810D0AB68013BAB60002B76
:1021400004DB2B685A1C2A60187004E02900FFF792
:1021500053FE431C01D00134EBE770BDF7B5394B9A
:10216000C66804000D0000921E4267D04369180043
:10217000019300F05DFA071E60D1009B012B04D093
:10218000022B07D0002B59D122E0200000F05EF88E
:102190002D181DE0019800F045FAE268002804DAE5
:1021A00080231343E360012749E0E16A23689942F1
:1021B00000D90B00A1695B1821695B1A920603D54F
:1021C000A26A934200DA1300834200DA0300ED189A
:1021D000002D33DBB30404D52368E26A9A4200D2AF
:1021E000E362A06985420EDBE26A2368934200D273
:1021F0001300226919180092891A8D4203DC216BA1
:102200004218954206DB20231E430023A562A360EB
:1022100063600FE02D1AB20701D5691AA160F207B9
:1022200003D5009A9B1AEB1A6360009B5D1920236B
:1022300025609E43044B1E40E66000E00227380004
:10224000FEBDC04603001000BFCFF7FFC3689A076A
:1022500005D1212201200E4B40421A6016E02022B7
:1022600019030AD5134201D0806A04E00368826929
:1022700000699B18181A013808E0134201D0806ADF
:1022800004E00368826900699B18181A7047C04609
:10229000D8F1FF1F37B5184C18492200002000F074
:1022A0007DF8802380225B00D2000021200000F016
:1022B0002FF8134C134D22002900012000F06EF876
:1022C000802380225B00D2000021200000F020F853
:1022D0000D4B1B680193022B0DDD0C4C29002200D5
:1022E000022000F05BF8802380225B00D2000021F6
:1022F000200000F00DF837BD1CF1FF1F5431000025
:1023000058F1FF1F563100003831000094F1FF1FD3
:10231000F0B5C6680124B5071BD08025AD00AA42E0
:102320000CD08025ED00AA4204D080256D00AA4281
:102330000FD103E001002300243104E0064F5D1EAD
:102340000124BD4205D80024324301610160C3610C
:10235000C2602000F0BDC046FEFFFF0070B50C4D0E
:102360002B68002B01D10B4B2B600323C41C2E6860
:102370009C433419200000F0CFF8002802D12C60D3
:10238000300004E00C220120034B40421A6070BD73
:10239000D4F1FF1FDCF1FF1FD8F1FF1FF7B50D00CF
:1023A00001901000140000F033F82B78722B09D044
:1023B000772B04D0612B25D10823144A04E0042391
:1023C000022201E0002301220220691C0327844627
:1023D0000426012508782B2805D0622807D132432E
:1023E0002B430131F6E760463A430343F9E7E260E5
:1023F000019A62611B0706D5022200212000FFF727
:10240000ADFE00E000242000FEBDC04602800000BA
:10241000F0B5C46889B00500A30721D0230718D4FC
:102420004769066900F022F8380000F0F5F8230546
:1024300002D53000FFF752FE0B4BA40DA4059C42C1
:1024400007D12022296A684600F004F9684600F0A6
:102450002FF83C2200212800FFF7AAFC002001E011
:102460000120404209B0F0BD000080AD73B50028E6
:1024700006D10D4B04001B68050001933C260EE0BD
:1024800000F054F805000DE030006043074BC01821
:1024900000F04CF8002801D001256D420134019B69
:1024A0009C42F1DB280076BD383100001CF1FF1F93
:1024B00010B5040000F006F80100200000F0BEF89E
:1024C00010BDFFFF032210B5431C104206D001309F
:1024D000411E09780029F8D1C01A18E00C4C026896
:1024E0000C4951189143214201D10430F7E7D4B28D
:1024F000411C002C0AD0FF242402811C224205D05A
:10250000FF242404C11C224200D0011DC81A10BDA2
:1025100080808080FFFEFEFE034B0200181E02D06A
:1025200000209A4240417047DCF5FF1FC36870B538
:1025300004000320184019D09B0604D52000A66A89
:10254000FFF73AFC04E02368A2699E182369F61A93
:10255000E268074B20001340E360FFF7F3FC05003F
:10256000002231002000FFF7F9FD280070BDC046B1
:10257000FFCFFFFF03000B4321D4002931D00122FC
:10258000D207030901E0090112099942FBD9430866
:1025900001E0490052089942FBD900E04908401A7D
:1025A00007D35241FAD301461046704749084018F4
:1025B000F7D29218FAD34018014610467047CB0F55
:1025C00000D04942021000D54042534008B5FFF701
:1025D000D4FF0CBC521000D34042002A00D549421F
:1025E0001847F446002000F001F860477047844621
:1025F000043A09D3830707D109060B0A19430B0CC8
:102600001943043A02C0FCD2043203D001700130F5
:10261000013AFBD16046704703B469460220ABBE65
:1026200002B0704703B469460C20ABBE02B07047DD
:1026300003B469460920ABBE02B0704703B46946D3
:102640000E20ABBE02B0704703B469460A20ABBE91
:1026500002B070470FB469460D20ABBE04B070479E
:102660000FB469460520ABBE04B070470101FFFFFF
:102670000000FFFF07020000000000000100FFFF54
:10268000010300000000011000127A000004800025
:102690002E2E2F647269766572732F66736C5F637A
:1026A0006C6F636B2E633A323235203A20675F7865
:1026B00074616C3046726571000000002E2E2F642C
:1026C0007269766572732F66736C5F636C6F636B90
:1026D0002E633A333430203A20675F7874616C306F
:1026E00046726571000000002E2E2F6472697665B7
:1026F00072732F66736C5F636C6F636B2E633A3318
:102700003630203A20675F7874616C3332467265E8
:10271000710000002E2E2F647269766572732F6629
:10272000736C5F636C6F636B2E633A353937203A95
:10273000206D6367706C6C30636C6B002E2E2F64A1
:102740007269766572732F66736C5F636C6F636B0F
:102750002E633A373630203A20636F6E6669670021
:102760002E2E2F647269766572732F66736C5F63A9
:102770006C6F636B2E633A31333830203A20636FCD
:102780006E666967000000002E2E2F647269766500
:1027900072732F66736C5F636C6F636B2E633A3179
:1027A000353439203A20636F6E66696700FFFFFF9A
:1027B0008002DC020005B80580079508000A710B4D
:1027C0002E2E2F647269766572732F66736C5F6745
:1027D00070696F2E633A3638203A20696E737461DF
:1027E0006E6365203C2041525241595F53495A451E
:1027F00028735F6770696F42617365732900000019
:102800002E2E2F647269766572732F66736C5F6704
:1028100070696F2E633A3735203A20636F6E6669B0
:102820006700FFFF2E2E2F647269766572732F6624
:10283000736C5F6C707363692E633A313434203A81
:1028400020696E7374616E6365203C204152524171
:10285000595F53495A4528735F6C707363694261CD
:1028600073657329000000002E2E2F64726976654F
:1028700072732F66736C5F6C707363692E633A3189
:102880003531203A2068616E646C65002E2E2F640D
:102890007269766572732F66736C5F6C70736369AF
:1028A0002E633A313639203A2068616E646C6500D7
:1028B0002E2E2F647269766572732F66736C5F6C4F
:1028C000707363692E633A313837203A206461743B
:1028D000610000002E2E2F647269766572732F6678
:1028E000736C5F6C707363692E633A323031203AD7
:1028F00020646174610000002E2E2F647269766579
:1029000072732F66736C5F6C707363692E633A32F7
:102910003135203A20636F6E666967002E2E2F6472
:102920007269766572732F66736C5F6C707363691E
:102930002E633A323136203A20636F6E6669672D16
:102940003E62617564526174655F4270730000009D
:102950002E2E2F647269766572732F66736C5F6CAE
:10296000707363692E633A333431203A20636F6E9B
:10297000666967002E2E2F647269766572732F6602
:10298000736C5F6C707363692E633A333532203A2F
:102990002062617564526174655F4270730000006B
:1029A0002E2E2F647269766572732F66736C5F6C5E
:1029B000707363692E633A353231203A2064617452
:1029C000610000002E2E2F647269766572732F6687
:1029D000736C5F6C707363692E633A353336203ADB
:1029E00020646174610000002E2E2F647269766588
:1029F00072732F66736C5F6C707363692E633A3504
:102A00003831203A2068616E646C65002E2E2F6488
:102A10007269766572732F66736C5F6C707363692D
:102A20002E633A363130203A2068616E646C65005E
:102A30002E2E2F647269766572732F66736C5F6CCD
:102A4000707363692E633A363131203A2072696EB1
:102A500067427566666572002E2E2F647269766510
:102A600072732F66736C5F6C707363692E633A3692
:102A70003331203A2068616E646C65002E2E2F641D
:102A80007269766572732F66736C5F6C70736369BD
:102A90002E633A363533203A2068616E646C6500E7
:102AA0002E2E2F647269766572732F66736C5F6C5D
:102AB000707363692E633A363534203A2078666540
:102AC000720000002E2E2F647269766572732F6675
:102AD000736C5F6C707363692E633A363535203AD8
:102AE00020786665722D3E6461746153697A650071
:102AF0002E2E2F647269766572732F66736C5F6C0D
:102B0000707363692E633A363536203A20786665ED
:102B1000722D3E64617461002E2E2F647269766599
:102B200072732F66736C5F6C707363692E633A36D1
:102B30003833203A2068616E646C65002E2E2F6455
:102B40007269766572732F66736C5F6C70736369FC
:102B50002E633A363933203A2068616E646C650022
:102B60002E2E2F647269766572732F66736C5F6C9C
:102B7000707363692E633A363934203A20636F7577
:102B80006E7400002E2E2F647269766572732F6644
:102B9000736C5F6C707363692E633A373131203A1E
:102BA0002068616E646C65002E2E2F6472697665F4
:102BB00072732F66736C5F6C707363692E633A3740
:102BC0003132203A20786665720000002E2E2F6484
:102BD0007269766572732F66736C5F6C707363696C
:102BE0002E633A373133203A20786665722D3E6481
:102BF00061746153697A65002E2E2F64726976655F
:102C000072732F66736C5F6C707363692E633A37EF
:102C10003134203A20786665722D3E64617461001B
:102C20002E2E2F647269766572732F66736C5F6CDB
:102C3000707363692E633A383330203A2068616ECE
:102C4000646C65002E2E2F647269766572732F6630
:102C5000736C5F6C707363692E633A383531203A58
:102C60002068616E646C65002E2E2F647269766533
:102C700072732F66736C5F6C707363692E633A387E
:102C80003532203A20636F756E7400002E2E2F644B
:102C90007269766572732F66736C5F6C70736369AB
:102CA0002E633A383636203A2068616E646C6500CF
:102CB0000000000000B0064000C006400000000018
:102CC0000B0034100C0034102E2E2F6472697665C0
:102CD00072732F66736C5F756172742E633A31364E
:102CE00039203A20696E7374616E6365203C2075EB
:102CF0006172744172726179436F756E7400000085
:102D00002E2E2F647269766572732F66736C5F75F1
:102D10006172742E633A313736203A2068616E64EE
:102D20006C6500002E2E2F647269766572732F66B3
:102D3000736C5F756172742E633A313934203A20B6
:102D400068616E646C6500002E2E2F647269766572
:102D500072732F66736C5F756172742E633A3231D1
:102D600032203A20636F6E66696700002E2E2F6452
:102D70007269766572732F66736C5F756172742EFB
:102D8000633A323133203A20636F6E6669672D3EB5
:102D900062617564526174655F4270730000000087
:102DA0002E2E2F647269766572732F66736C5F7551
:102DB0006172742E633A333439203A20636F6E6641
:102DC000696700002E2E2F647269766572732F6614
:102DD000736C5F756172742E633A333636203A2015
:102DE00062617564526174655F4270730000000037
:102DF0002E2E2F647269766572732F66736C5F7501
:102E00006172742E633A353538203A2064617461FA
:102E1000000000002E2E2F647269766572732F6693
:102E2000736C5F756172742E633A353732203A20C5
:102E300064617461000000002E2E2F647269766553
:102E400072732F66736C5F756172742E633A3631DC
:102E500034203A2064617461000000002E2E2F643B
:102E60007269766572732F66736C5F756172742E0A
:102E7000633A363331203A2068616E646C65000035
:102E80002E2E2F647269766572732F66736C5F7570
:102E90006172742E633A363731203A2068616E646D
:102EA0006C6500002E2E2F647269766572732F6632
:102EB000736C5F756172742E633A363732203A2034
:102EC00072696E6742756666657200002E2E2F6409
:102ED0007269766572732F66736C5F756172742E9A
:102EE000633A363932203A2068616E646C650000BE
:102EF0002E2E2F647269766572732F66736C5F7500
:102F00006172742E633A373133203A2068616E64FF
:102F10006C6500002E2E2F647269766572732F66C1
:102F2000736C5F756172742E633A373134203A20C6
:102F300078666572000000002E2E2F647269766537
:102F400072732F66736C5F756172742E633A3731DA
:102F500035203A20786665722D3E6461746153694C
:102F60007A6500002E2E2F647269766572732F6663
:102F7000736C5F756172742E633A373136203A2074
:102F8000786665722D3E6461746100002E2E2F6498
:102F90007269766572732F66736C5F756172742ED9
:102FA000633A373433203A2068616E646C65000000
:102FB0002E2E2F647269766572732F66736C5F753F
:102FC0006172742E633A373533203A2068616E643B
:102FD0006C6500002E2E2F647269766572732F6601
:102FE000736C5F756172742E633A373534203A2002
:102FF000636F756E740000002E2E2F647269766503
:1030000072732F66736C5F756172742E633A373713
:1030100031203A2068616E646C6500002E2E2F64AA
:103020007269766572732F66736C5F756172742E48
:10303000633A373732203A20786665720000000024
:103040002E2E2F647269766572732F66736C5F75AE
:103050006172742E633A373733203A20786665728E
:103060002D3E6461746100002E2E2F6472697665B6
:1030700072732F66736C5F756172742E633A3737A3
:1030800034203A20786665722D3E6461746153691C
:103090007A6500002E2E2F647269766572732F6632
:1030A000736C5F756172742E633A383930203A2040
:1030B00068616E646C6500002E2E2F6472697665FF
:1030C00072732F66736C5F756172742E633A393157
:1030D00031203A2068616E646C6500002E2E2F64EA
:1030E0007269766572732F66736C5F756172742E88
:1030F000633A393132203A20636F756E74000000F4
:103100002E2E2F647269766572732F66736C5F75ED
:103110006172742E633A393331203A2068616E64EB
:103120006C65002A2A2A20617373657274206661B7
:10313000696C6564203A2000030000002A2A2A20D6
:103140005F437379735F616C6C6F63206661696C58
:0831500065640A0072007700BB
:083158000080000000004001AE
:0400000300000101F7
:00000001FF
