:020000006E2868
:10000600831203134208880009150330FC00973059
:10001600FD00FD0B0C28FC0B0C280000000009114C
:020026000800D0
:0E0028008312031341088A004008820008007A
:1000360083120313C30109144308323E84000008E7
:10004600F10071080A3A03193C284308323E84003D
:100056000008F0007008C2000320C30A8230FC00CA
:10006600DD30FD00FD0B3528FC0B352800000000B7
:080076001F2801308905080074
:10007E0014208A110A128000840AC00A0319C10AC8
:08008E00F003031D3F280800E8
:1000960083120313C30109144308203E8400000899
:1000A600F10071080A3A03196C284308203E8400BF
:1000B6000008F0007008C2000320C30A0D30FC00DF
:1000C600FB30FD00FD0B6528FC0B652800000000D9
:0600D6004F28091008008C
:1000DC00203083120313A0004330A1002030A20073
:1000EC006330A3006F30A4006E30A5002030A60052
:1000FC006530A7006C30A8002030A9004D30AA0054
:10010C004930AB004330AC005230AD004F30AE0044
:10011C002030AF000A30B000B1012030B2002030E6
:10012C00B3002030B4005030B5004930B600433035
:10013C00B7003130B8003630B9004630BA0038302C
:10014C00BB003830BC003730BD000A30BE00BF01E8
:10015C00831603178801003083120313890530308E
:10016C00880000308316890588014130FC00EE3090
:10017C00FD00FD0BBF28FC0BBF2800003C30831298
:10018C00C20003200F30C20003200130C200032044
:10019C000630C20003204B20C030C20003201B20BD
:0401AC00D628D72852
:04400E00F42F000784
:00000001FF
