:02000000BD2B16
:10000600103083120313FD00FD0B072800000800C3
:10001600083083120313FC002330FD00FD0B11286A
:06002600FC0B112808008C
:04002C0000000800C8
:10003000831203179E1B1F28031388132128031301
:10004000881703171E1B27280313081329280313D7
:10005000081703179E1A2F28031388123128031339
:10006000881603171E1A372803130812392803139A
:100070000816831667183F28831208154128831233
:10008000081188151620881103179E194A28031392
:1000900088134C280313881703171E1952280313BB
:1000A000081354280313081703179E185A2803131C
:1000B00088125C280313881603171E18622803137E
:1000C0000812642803130816831667186A28831217
:1000D00008156C28831208118815162088118316BC
:0C00E000671C74280B2075280320080002
:1000EC007B15FB1F80280130F300F201F101F001B8
:0800FC00FA0DF20CFF300800C0
:1001040083120313F801F9011030FC00710DF80D8E
:10011400F90D7408F8027508031C750FF902031829
:100124009A287408F80775080318750FF90703105F
:0A013400F00DF10DFC0B8828080007
:08013E00FA1FF2130030080063
:0E014600F201F101F001F801F30100300800B0
:10015400A0017208031DBF287108F2007008F100A5
:10016400F001A0157208031DBF287108F200F10107
:10017400A011201672080319CD282008F302031DCC
:10018400031CD1280310F21BD528F00DF10DF20D3C
:10019400F30BC528D1280130FC00A320D828023055
:0E01A400FC007620D8280430FC009F200800C4
:0E01B2008316031366088A00650882000800A1
:1001C0008316031367108312031719089E00182063
:0601D0008316671408000D
:1001D600831203179C0105301C020318F9281C081A
:1001E6001B078400203080009C0AEE281C081B0791
:1001F600840080019C031C081B079D000A30F40044
:10020600F5011908F0001A08F10082207808F000BC
:100216007908F1003030F00703171D0884007008D4
:1002260080000A30F400F5011908F0001A08F10000
:10023600822070080317990071089A000030710631
:10024600031D272900307006031D2A292C299C032B
:04025600FE28080076
:06025A00FB15FF30080057
:100260007B14FB1F3B29F201FA1FFF30F200F10063
:0A027000F000FA0DF20CFF30080058
:10027A00FB14FB1F4729FF30F300F200F100F000E6
:08028A00FA0DF20CFF30080030
:10029200831203137408003A031D64297508003A97
:1002A200031D64297608003A031D64297708003A81
:1002B200031D6429FF30F000FF30F1007F30F200AF
:1002C200FF30F300FF298312031377080319F32980
:1002D20073080319F629720876068039FA00F217B4
:1002E200F617A0017208F8007108FC007008FD0002
:1002F2007408FD027508031C750FFC027608031CC6
:10030200760FF802F801FC01FD01031C8F2903108E
:10031200F20CF10CF00CF80C0130A0007708F3029B
:10032200031C99297E302007F3070318F9299E2917
:100332007E302007F307031CFC291830FA07FD0D55
:10034200FC0DF80DF00DF10DF20DA00D7408F00288
:100352007508031C750FF1027608031C760FF20272
:10036200760DA004201CB7297D14C2297408F00759
:1003720075080318750FF10776080318760AF20755
:100382007D10FA031F307A05031DA0297B1B7D1CFB
:10039200E9290310F00DF10DF20DA00D7408F00221
:1003A2007508031C750FF1027608031C760FF20222
:1003B200760D20040139FD070318FC0A0319F80A17
:1003C200031DE929F80CFC0CFD0CF30A0319F929A9
:1003D200FA1FF8137808F2007C08F1007D08F0009B
:1003E2000030FE2901302D21FE290230A320FE29F2
:0E03F20004303D21FE2908307620000008006E
:10040000831203137008F8007108F000F101F20183
:10041000F301FB01FC019630F300FA01F01F162AEC
:10042000F809F009F80A0319F00AFA177008F10040
:0C0430007808F000F801F201AA20080092
:10043C0083120313FB01730803195B2A7208FA0079
:10044C00F2178E30F302F31F5E2AF309F30A083019
:10045C007302031C412AF300F10D7208F100F20142
:10046C0008307302031C412AF300F10DF1017308EB
:10047C00031D0310492A73080319492A0310F20CAF
:10048C00F10CF30B442A7B1B711C532A031C532ABB
:10049C00F10A0319F20AF21B6A2AFA1F6D2AF209F1
:1004AC00F109F10A0319F20A6D2AF201F1016D2A20
:1004BC007B14FB1F702AF201FA1F702AFF30F20026
:1004CC00F100FA0DF20C702A0130FC00722A003097
:1004DC00FC00722AFF30FC00FC080319762A30213C
:0A04EC007108F0007208F10008002A
:1004F60083120317950196011008970011089800BA
:1005060080301106F00080307002031D8C2A003006
:10051600100203189A2A0130950000309600100840
:10052600003C97001108031C013E98019802170829
:10053600990018089A0012089B00EB2006309300D9
:10054600003094001408003C031DAB2A1308003C3D
:100556000318C62A13081207F20001301302F0002E
:100566000030031C013E1402F100700812078400DB
:100576000008F000720884007008800001309302C1
:10058600031C9403A52A1208840020308000150855
:1005960016040319E42A9301940113081207840030
:1005A6000008203A031DDB2A930A0319940AD02A6D
:1005B60001309302031C94031308120784002D30A4
:0405C60080000800A9
:1005CA00D9208A110A128000840AE50A0319E60A68
:0805DA00F003031DE52A0800EF
:1005E200032B8030831203179000162BC03090002B
:1005F200162B94309000162BD4309000162B80309E
:100602009000162B831203171008013A0319F22ADD
:100612001008023A0319F72A1008033A0319FA2AB2
:100622001008043A0319FD2A002B1103F0001008E8
:10063200F0077008900070089E001820831667105B
:10064200EF016F08831203171207840000080319D1
:10065200362B831603136F088312031712078400C5
:1006620000089900E020EF0A222B83160313671477
:0206720008007E
:1006740083160313881108110812881208138813AB
:1006840083128811081188130813881208120B208A
:100694000B200B20881608168815162088110B20AD
:1006A4008815162088110B208815162088110B2018
:1006B40008128815162088110B2088151620881119
:1006C400881288178815162088110B20881308169D
:1006D40088151620881108128815162088110B20F9
:1006E40088151620881108168815162088110B20E5
:1006F40008128815162088118817081788160816F6
:0E0704008815162088110B2083166714080034
:100712008312031790019101831603136F08F200ED
:100722006F08F300720884000008203A031DA02B12
:100732008312031710081104031DA02BAF2B831281
:100742000317013090000030910072088400000805
:10075200F0007308840070088000F30A7208F10048
:10076200F20A710884000008003A031D932B8316D5
:0807720003136F08F0000800FA
:10077A0044263A230130831203179E0018200C30B6
:10078A0003179E001820103083168600031789016C
:10079A000313880183120810881001300317900090
:1007AA000130910032309200F12202308312031795
:1007BA0090000130910021309200F1220D30FB00AF
:1007CA00AF30FC00B630FD00FD0BE92BFC0BE92B2A
:1007DA00FB0BE92B00001030831290008316E30113
:1007EA00E40100306406031DFC2B02306306031982
:1007FA00162C013083128806023088060330FB006B
:10080A008A30FC005530FD00FD0B092CFC0B092C2D
:10081A00FB0B092C000000008316E30A0319E40A03
:10082A00F62B0230831203179E0018208F018E01C7
:10083A0006140330FD00FD0B202C0610061A262C88
:10084A00232C1014061E2A2C272C10100F08F10036
:10085A00F0010E08F0040030F10470088316E1007C
:10086A007108E2000022AE30F4004730F5006B3028
:10087A00F6008230F70049211E2270088316E10033
:10088A007108E20070088312031790007108910042
:10089A00E83092007B22E83083160313EF008923A5
:1008AA0080306206F00080307002031D5E2C093031
:1008BA0061020318952C0130C4000030C5000030D5
:1008CA0083126F06031D6B2C6E08013A0319712CF3
:1008DA00013003179E0018200130031790000130E1
:1008EA009100D5309200F122831208148814023044
:1008FA00FB004530FC00A930FD00FD0B822CFC0BEF
:10090A00822CFB0B822C0000000008108810831632
:10091A0044088312EE00831645088312EF009F2DC8
:10092A00803083166206F00080307002031D9F2C0F
:10093A000A306102031C0D2D8030F00080306206FF
:10094A007002031DAA2C6108133C031C0D2D0230F2
:10095A00C4000030C5000130831203179E0018201E
:10096A0001300317900001309100C9309200F12242
:10097A0001308312031790000C309100E830920086
:10098A00F12201308312031790000F309100C63014
:10099A009200F1220330FB000830FC007730FD00A2
:1009AA00FD0BD52CFC0BD52CFB0BD52C013083125F
:1009BA0003179E00182001300317900001309100A0
:1009CA005B309200F122023083120317900001304B
:1009DA0091004E309200F1228312081488140330D9
:1009EA00FB008A30FC005530FD00FD0BFA2CFC0B95
:1009FA00FA2CFB0BFA2C0000000008108810831652
:100A0A0044088312EE00831645088312EF009F2DD7
:100A1A00803083166206F00080307002031D172DA5
:100A2A0014306102031C572D8030F00080306206BA
:100A3A007002031D222D6108953C031C572D0330BB
:100A4A00C4000030C500003083126F06031D2F2D2D
:100A5A006E08033A0319352D013003179E0018203A
:100A6A000130031790000130910042309200F122C8
:100A7A0001308312031790000C309100E830920085
:100A8A00F12201308312031790000F3091006B306E
:100A9A009200F12244088312EE008316450883125D
:100AAA00EF009F2D803083166206F00080307002BE
:100ABA00031D612D96306102031C9F2D0430C40072
:100ACA000030C500003083126F06031D6E2D6E08BC
:100ADA00043A0319742D013003179E0018200130BF
:100AEA000317900001309100A0309200F122E30137
:100AFA00E40100306406031D842D123063060319D5
:100B0A00982DEA30FC00C330FD00FD0B8A2DFC0B4A
:100B1A008A2D1830831203179E0018208316E30AC1
:100B2A000319E40A7E2D44088312EE008316450851
:100B3A008312EF000230FB000430FC00BA30FD00E3
:100B4A00FD0BA52DFC0BA52DFB0BA52D0000162CCE
:020B5A00AD2DBF
:100C8800213084004A3083120313F000B3308316F6
:100C9800E5000530E600E522A03084002430831208
:100CA800F000FD308316E5000530E600E5226B30E4
:100CB800840005308312F0003E308316E5000630CC
:100CC800E600E522C43084001D308312F000213094
:0C0CD8008316E5000630E600E522080067
:100B6600503472346F34673472342E342034453442
:100B76006D34623465346234693464346F3473348A
:020B8600003439
:100B88002034503472346F347934653463347434B7
:100B98006F342034463469346E3461346C34003434
:100BA800443469347334743461346E34633469346E
:080BB80061343D3420340034A7
:100BC0002034203420344434653474346534633440
:0A0BD0007434613464346F3400346F
:100BDA0020344F3462346A34653474346F342034C8
:100BEA00433465347234633461346E346F340034A0
:100BFA0020344E346F3420347334653420346434F2
:100C0A006534743465346334743461342034613443
:100C1A006C34673475346E3420346F3462346A3419
:100C2A00653474346F342034633465347234633415
:080C3A0061346E346F340034A4
:040C42000034003446
:060C460063346D3400343C
:100C4C00443469347334743461346E3463346934C9
:080C5C0061343D342034003402
:100C64002034203444344534543445344E344734E9
:080C74004134533445340034CF
:060C7C0063346D34003406
:040C82000034003406
:04400E00F42F000784
:00000001FF
