:02000000BD2B16
:10000800FF00030E8301D7000A08D5008A01700893
:10001800A4007108A3007208A2007308A1000C1CB8
:100028002D282908F0002A08F1002B08F2002C08D6
:10003800F300F00A0319F10A0319F20A0319F30A83
:100048007008A9007108AA007208AB007308AC0018
:100058000C102408F0002308F1002208F2002108FF
:10006800F30055088A00570E8300FF0E7F0E090023
:04007800000008007C
:10007C00083083120313FC002330FD00FD0B4428D1
:06008C00FC0B44280800F3
:10009200103083120313FD00FD0B4D2800000800F1
:1000A20083120313ED1B57288613582886176D1BDE
:1000B2005C2806135D280617ED1A6128861262284D
:1000C20086166D1A662806126728061656186B28B9
:1000D20006156C28061186153C208611ED19732829
:1000E2008613742886176D1978280613792806173F
:1000F200ED187D2886127E2886166D188228061233
:10010200832806165618872806158828061186158C
:100112003C208611561C8F283E209028492008003A
:1001220083120313FB01FA01F901F801A001730D17
:10013200F80D7408F8027508031C750FF9027608A9
:10014200031C760FFA027708031C770FFB020001EB
:10015200031C0130A002F30D0730FC00730DF80DF3
:10016200F90DFA0DFB0DA00D7408731CCA28F802D4
:100172007508031C750FF9027608031C760FFA0244
:100182007708031C770FFB020001031C0130A00259
:10019200DB28F80775080318750FF90776080318A6
:1001A200760FFA0777080318770FFB070001031889
:1001B2000130A007F30DFC0BAF28720DF80DF90DFD
:1001C200FA0DFB0DA00D7408731CF928F8027508CE
:1001D200031C750FF9027608031C760FFA027708E2
:1001E200031C770FFB020001031C0130A0020A2945
:1001F200F80775080318750FF90776080318760FC4
:10020200FA0777080318770FFB070001031801307C
:10021200A007F20D0730FC00720DF80DF90DFA0D72
:10022200FB0DA00D7408721C2829F8027508031C26
:10023200750FF9027608031C760FFA027708031C81
:10024200770FFB020001031C0130A0023929F807D5
:1002520075080318750FF90776080318760FFA0761
:1002620077080318770FFB07000103180130A00776
:10027200F20DFC0B0D29710DF80DF90DFA0DFB0DA8
:10028200A00D7408721C5729F8027508031C750F1B
:10029200F9027608031C760FFA027708031C770F1F
:1002A200FB020001031C0130A0026829F80775084F
:1002B2000318750FF90776080318760FFA077708FF
:1002C2000318770FFB07000103180130A007F10D97
:1002D2000730FC00710DF80DF90DFA0DFB0DA00DA4
:1002E2007408711C8629F8027508031C750FF9023F
:1002F2007608031C760FFA027708031C770FFB02BD
:100302000001031C0130A0029729F80775080318A1
:10031200750FF90776080318760FFA07770803189E
:10032200770FFB07000103180130A007F10DFC0B4A
:100332006B29700DF80DF90DFA0DFB0DA00D740867
:10034200711CB529F8027508031C750FF9027608AD
:10035200031C760FFA027708031C770FFB020001D9
:10036200031C0130A002C629F80775080318750F8F
:10037200F90776080318760FFA0777080318770F3C
:10038200FB07000103180130A007F00D0730FC0045
:10039200700DF80DF90DFA0DFB0DA00D7408701C0F
:1003A200E429F8027508031C750FF9027608031C8C
:1003B200760FFA027708031C770FFB020001031C79
:1003C2000130A002F529F80775080318750FF9071F
:1003D20076080318760FFA0777080318770FFB07DA
:1003E200000103180130A007F00DFC0BC929701899
:1003F200082A7408F80775080318750FF9077608B4
:100402000318760FFA0777080318770FFB0708001F
:100412008312031356106508ED005120561408008C
:1004220083120313EA01EB0100306B02031D1B2A46
:100432000A306A020318262A6A08690784002030F3
:100442008000EA0A0319EB0A152A6A086907840080
:1004520080010130EA02031CEB036A086907EC0021
:100462000A30F400F501F601F7016508F0006608AC
:10047200F1006708F2006808F30091207808F000A4
:100482007908F1007A08F2007B08F3003030F007B7
:100492006C088400700880000A30F400F501F6014F
:1004A200F7016508F0006608F1006708F2006808C5
:1004B200F30091207008E5007108E6007208E70079
:1004C2007308E8000030F4007306031D722A7408F2
:1004D2007206031D722A74087106031D722A7008BF
:1004E200003A031D752A7A2A0130EA02031CEB0343
:0404F2002E2A0800A6
:0E04F6008312031354088A0053088200080082
:10050400942A803083120313D800A72AC030D8005D
:10051400A72A9430D800A72AD430D800A72A80303C
:10052400D800A72A831203135808013A0319832A0F
:100534005808023A0319882A5808033A03198B2ADF
:100544005808043A03198E2A912A5903F0005808CE
:10055400F0077008D8007008ED0051205610DB0138
:100564005B085A07840000080319C02A5B085A076D
:1005740084000008E5000922DB0AB22A56140800A8
:1005840083160313861106110612861206138613A8
:1005940083128611061186130613861206123E2054
:1005A4003E203E208616061686153C2086113E20E7
:1005B40086153C2086113E2086153C2086113E205F
:1005C400061286153C2086113E2086153C20861195
:1005D4008612861786153C2086113E208613061641
:1005E40086153C208611061286153C2086113E2075
:1005F40086153C208611061686153C2086113E2061
:10060400061286153C2086118617061786160616CE
:0C06140086153C2086113E20561408007C
:1006200083120313DF01E0015808E1005908E200DA
:100630005A08E3005B08E40080305B06F00080307D
:100640007002031D2D2B00305A02031D2D2B00308C
:100650005902031D2D2B003058020318552B013071
:10066000DF000030E000F401F501F601F701580861
:10067000F0005908F1005A08F2005B08F300740812
:10068000E1007508E2007608E3007708E4007008EE
:10069000E1027108031C710FE2027208031C720F61
:1006A000E3027308031C730FE4026108E5006208AB
:1006B000E6006308E7006408E8005C08E90011222E
:1006C0000B30DD000030DE005E08003C031D6A2BAD
:1006D0005D08003C0318852B5D085C07F2000130C3
:1006E0005D02F0000030031C013E5E02F100700864
:1006F0005C0784000008F000720884007008800025
:100700000130DD02031CDE03642B5C088400203012
:1007100080005F0860040319A32BDD01DE015D0882
:100720005C0784000008203A031D9A2BDD0A031998
:10073000DE0A8F2B0130DD02031CDE035D085C073F
:0807400084002D308000080048
:1007480083120313901710131012901210119014A3
:0A0758008B170B1783160C14080012
:100762007B228A110A128000840AD30A0319D40A4E
:08077200F003031DB12B080088
:10077A0083120313A501A601A701A801A901AA01D1
:10078A00AB01AC014630AD007230AE006530AF004F
:10079A006330B0007530B1006530B2006E30B3001E
:1007AA006330B4006930B5006D30B6006530B7000B
:1007BA007430B8007230B9006F30BA00BB014830EB
:1007CA00BC007A30BD00BE01A423031788010313BD
:1007DA008501831285018316880183128801831695
:1007EA0003178901C2220130ED0051200C30ED00BF
:1007FA0051200130D8000130D9002D30DA00822290
:10080A000230D8000E30D9003C30DA0082221014AF
:10081A000630FB001330FC00AD30FD00FD0B132C3D
:10082A00FC0B132CFB0B132C0000000010100F08FC
:10083A0085000E088800A8011008A7000F08A60066
:10084A00A5010E08A5070318A60A0030A700A800EC
:10085A002A08F3002908F200F001F1017008A90042
:10086A007108AA007208AB007308AC002508F007EB
:10087A0026080318260FF10727080318270FF2077F
:10088A0028080318280FF3077008A5007108A600A6
:10089A007208A7007308A8007008D8007108D90068
:1008AA007208DA007308DB003F30DC0010230230E4
:1008BA00D8000130D9003F30DA0082228F018E0140
:0C08CA00A901AA01AB01AC010C2C6A2CA6
:04400E00F42F000784
:00000001FF
