:020000004A288C
:100006008312031387150230FC004B30FD00FD0BF5
:100016000A28FC0B0A2887110230FC004B30FD0031
:0A002600FD0B1328FC0B1328080043
:0E003000831203132A088A00290882000800A0
:10003E0018208A110A128000840AA90A0319AA0A32
:08004E00F003031D1F28080048
:10005600831203132B080319482807150830AC0030
:100066002C08031944282008213E84000008860035
:100076000320A00A2008083A031D4228A001AC0369
:0E008600332807110320AB032B288601080046
:10009400013083120313A0003C30A1006630A2009B
:1000A400C330A3008130A400C330A5004230A600B1
:1000B400A530A700E730A8008316860180308700AA
:1000C40083128601870183160516031788018901A7
:1000D40083120313051C71286430AB002B206A289B
:0200E400722880
:04400E00F42F000784
:00000001FF
