:02000000632873
:10000800FF00030E8301B0000A08AF008A017C08D4
:10001800A1007D08A0000408A2008C1E1428492015
:100028002108FC002008FD00220884002F088A000F
:0A003800300E8300FF0E7F0E09005A
:100042008312031387150230FC004B30FD00FD0BB9
:100052002828FC0B282887110230FC004B30FD00B9
:0A006200FD0B3128FC0B31280800CB
:0E006C00831203132E088A002D08820008005C
:10007A0036208A110A128000840AAD0A0319AE0AD0
:08008A00F003031D3D280800EE
:100092008312031307150830AC002C0803195F28DC
:1000A2002308243E8400000886002120A30A230896
:1000B200083A031D5D28A301AC034E280711212035
:0400C20049280800C1
:1000C600013083120313A3003C30A4006630A50060
:1000D600C330A6008130A700C330A8004230A90073
:1000E600A530AA00E730AB008316181218110317C3
:1000F600871119300313990083129817181683165F
:1001060098168C160B178B17860180308700831282
:100116008601870183160516031788018901831254
:10012600031305186D294D3099000730FC007D300A
:10013600FD00FD0B9C28FC0B9C28413099000730E4
:10014600FC007D30FD00FD0BA628FC0BA6284E30DA
:1001560099000730FC007D30FD00FD0BB028FC0B3C
:10016600B028553099000730FC007D30FD00FD0BAE
:10017600BA28FC0BBA28453099000730FC007D30C0
:10018600FD00FD0BC428FC0BC4284C309900073039
:10019600FC007D30FD00FD0BCE28FC0BCE28203068
:1001A60099000730FC007D30FD00FD0BD828FC0BC4
:1001B600D8284C3099000730FC007D30FD00FD0B3F
:1001C600E228FC0BE228413099000730FC007D3024
:1001D600FD00FD0BEC28FC0BEC2852309900073093
:1001E600FC007D30FD00FD0BF628FC0BF6284130A7
:1001F60099000730FC007D30FD00FD0B0029FC0B4B
:100206000029203099000730FC007D30FD00FD0BF1
:100216000A29FC0B0A29323099000730FC007D3090
:10022600FD00FD0B1429FC0B142931309900073011
:10023600FC007D30FD00FD0B1E29FC0B1E29303015
:1002460099000730FC007D30FD00FD0B2829FC0BD2
:100256002829343099000730FC007D30FD00FD0B65
:100266003229FC0B3229353099000730FC007D30ED
:10027600FD00FD0B3C29FC0B3C2939309900073069
:10028600FC007D30FD00FD0B4629FC0B462939306C
:1002960099000730FC007D30FD00FD0B5029FC0B5A
:1002A6005029373099000730FC007D30FD00FD0BEA
:1002B6005A29FC0B5A29343099000730FC007D304E
:1002C600FD00FD0B6429FC0B642920309900051AFA
:0802D6006D296A2992286E29A6
:04400E00F42F000784
:00000001FF
