:020000002A28AC
:0E0006008312031322088A00210882000800DA
:1000140001308312031388060230FB004530FC00D4
:10002400A930FD00FD0B1428FC0B1428FB0B14282D
:0800340000000000A003080019
:10003C0003208A110A128000840AA10A0319A20A59
:08004C00F003031D1E2808004B
:100054008316031388018312860188140814081078
:100064000330FB000830FC007730FD00FD0B38281E
:10007400FC0B3828FB0B38280E30A000200803198D
:1000840045280A2040288810081008142F284928D9
:04400E00F42F000784
:00000001FF
