:020000002928AD
:10000800FF00030E8301A2000A08A3008A018C1EC8
:100018000F281A08880023088A00220E8300FF0E82
:040028007F0E09003E
:0E002C008312031321088A00200882000800B6
:10003A0016208A110A128000840AA00A0319A10A4A
:08004A00F003031D1D2808004E
:10005200831603131812181103178711193003138B
:100062009900831298171816831698168C160B1778
:100072008B178801FF3083128800831605168312BE
:10008200051A482831309900051A48284528402881
:020092004928FB
:04400E00F42F000784
:00000001FF
