:020000003E2898
:0E0006008312031321088A00200882000800DC
:0C001400831203132403831692000800DB
:100020000330831203132405F2007208F000F00D70
:100030007010F00D7010F00D7010F00D7010700851
:1000400097042408F0002508F100F10CF00CF113DE
:10005000711BF117F10CF00CF113711BF117700803
:0400600095000800FF
:1000640003208A110A128000840AA00A0319A10A33
:08007400F003031D322808000F
:10007C000C3083120313970002308C000430920072
:10008C008316870100308312A4000130A5000A20DA
:10009C008312A201A3018030033AF00080302306C2
:1000AC007002031D5B282208E83C031C74282208FC
:1000BC00A4002308A50010200230FB000430FC0033
:1000CC00BA30FD00FD0B6828FC0B6828FB0B682878
:1000DC0000006430A2070318A30A5128E830A200DC
:1000EC000330A30080302306F00080307002031D23
:1000FC00812800302202031C9A282208A40023081D
:10010C00A50010200230FB000430FC00BA30FD00CA
:10011C00FD0B8E28FC0B8E28FB0B8E280000643008
:0C012C00A202031CA30378284E289B2885
:04400E00F42F000784
:00000001FF
