:020000004D2889
:0E000600831203132B088A002A0882000800C8
:1000140003208A110A128000840AAA0A0319AB0A6F
:08002400F003031D0A28080087
:10002C0000308312031388052E0803193D282C0871
:10003C00203E840000088700023088070730FC004F
:10004C007D30FD00FD0B2828FC0B282888032D088B
:10005C00203E8400000887000730FC007D30FD0046
:10006C00FD0B3628FC0B36288803AE031A28080033
:10007C0083120313AC0A2C080A3A031D4C28AC015A
:0E008C00AD0A2D080A3A031D4C28AD010800EC
:10009A00773083120313A0004130A1003B30A20045
:1000AA006B30A3004D30A4006E30A5007E30A60050
:1000BA004330A7007F30A8006F30A90000308316B4
:1000CA008705FC3088057F308105003003178905D4
:1000DA0083120313860A0614061C74283E2019305C
:0800EA00AE00162070287828F2
:04400E00F42F000784
:00000001FF
